:020000040802F0
:100000000000022015240208850902088709020859
:10001000890902088B0902088D0902080000000006
:100020000000000000000000000000008F0902082E
:1000300091090208000000009309020895090208CE
:100040006524020865240208652402086524020864
:100050006524020865240208652402086524020854
:100060006524020865240208652402086524020844
:100070006524020865240208652402086524020834
:100080006524020865240208652402086524020824
:100090006524020865240208652402086524020814
:1000A0006524020865240208652402086524020804
:1000B00065240208652402086524020865240208F4
:1000C00065240208652402086524020865240208E4
:1000D00065240208652402086524020865240208D4
:1000E0006524020865240208000000006524020857
:1000F00065240208652402086524020865240208B4
:1001000065240208652402086524020865240208A3
:100110006524020865240208652402086524020893
:100120006524020865240208652402086524020883
:100130006524020865240208652402086524020873
:1001400000000000000000000000000000000000AF
:100150006524020865240208652402086524020853
:100160006524020865240208652402086524020843
:1001700065240208652402086524020800000000C6
:100180006524020865240208652402086524020823
:100190006524020865240208652402086524020813
:1001A0006524020865240208652402086524020803
:1001B00065240208652402086524020865240208F3
:1001C00065240208652402086524020865240208E3
:1001D00065240208652402086524020865240208D3
:1001E00065240208652402086524020865240208C3
:1001F00065240208652402086524020865240208B3
:1002000065240208652402086524020865240208A2
:100210006524020865240208652402086524020892
:100220006524020865240208652402080000000015
:100230006524020865240208000000006524020805
:100240006524020865240208652402086524020862
:100250006524020865240208652402086524020852
:100260006524020865240208652402086524020842
:1002700065240208652402086524020800000000C5
:1002800065240208652402086524020800000000B5
:080290000000000065240208D3
:100298000348044B834202D0034B03B1184770470D
:1002A800100000201000002000000000054806494A
:1002B8000B1AD90F01EBA301491002D0034B03B16C
:1002C80018477047100000201000002000000000B0
:1002D80010B5064C237843B9FFF7DAFF044B13B186
:1002E8000448AFF300800123237010BD10000020E4
:1002F800000000006824020808B5044B1BB104493B
:100308000448AFF30080BDE80840CFE700000000D4
:10031800140000206824020870B50D4E0D4D761BA0
:10032800B61006D0002455F8043B01349847A6427D
:10033800F9D1094E094D761B02F092F8B61006D095
:10034800002455F8043B01349847A642F9D170BD02
:100358009024020890240208942402089024020899
:10036800830730B548D0541E002A3FD0CAB203468E
:1003780001E0013C3AD303F8012B9D07F9D1032C86
:100388002DD9CDB245EA05250F2C45EA054536D9C4
:10039800A4F1100222F00F0C03F1200EE6444FEAFC
:1003A800121C03F1100242E9045542E902551032C9
:1003B8007245F8D10CF1010214F00C0F03EB021294
:1003C80004F00F0C13D0ACF1040323F0030304333F
:1003D800134442F8045B9342FBD10CF003042CB1A4
:1003E800CAB21C4403F8012B9C42FBD130BD6446C1
:1003F8001346002CF4D1F9E703461446BFE71A4622
:10040800A446E0E710B584B0002400940194029457
:10041800039400F02DFB01238DF800308DF8014086
:1004280001941F228DF8082087228DF809208DF865
:100438000A408DF80B408DF80C308DF80D308DF892
:100448000E408DF80F40684600F030FB042000F0A5
:100458001DFB04B010BD72B6FEE7000000B59DB0EC
:100468004C22002109A8FFF77BFF2022002101A8C8
:10047800FFF776FF022001F0C5FE002300931E4B14
:10048800DA6A22F00102DA62DB6A03F00103009300
:100498001A4A936923F4404343F480439361936970
:1004A80003F440430093009B144B9B6913F4005FD3
:1004B800FAD00223099301230C9340230D930023C0
:1004C800129309A801F010F888B93F23019300237B
:1004D80002930393049305930693079308930121CA
:1004E80001A801F035FC20B91DB05DF804FBFFF749
:1004F800B2FFFFF7B0FF00BF0004005800480258E1
:1005080008B5FFF77FFF01F0CFFEFFF7A7FF00F068
:100518001FF800F0FDF800F05FF900F0D7F9094C7A
:100528000021204600F094FE0421204600F090FEB1
:100538000021054800F08CFE0021044800F088FEE8
:10054800FEE700BFC40000202C0000207800002037
:1005580084B0194BD3F8E02042F01002C3F8E02031
:10056800D3F8E02002F010020092009AD3F8E020BD
:1005780042F02002C3F8E020D3F8E02002F0200285
:100588000192019AD3F8E02042F00102C3F8E0207A
:10059800D3F8E02002F001020292029AD3F8E02098
:1005A80042F00202C3F8E020D3F8E03003F002037F
:1005B8000393039B04B070470044025884B0036857
:1005C8001A4A934207D01A4A934212D0194A9342C0
:1005D8001DD004B07047184BD3F8E82042F002024F
:1005E800C3F8E820D3F8E83003F002030193019B35
:1005F800EFE7114BD3F8F02042F48032C3F8F02033
:10060800D3F8F03003F480330293029BE1E70A4BFE
:10061800D3F8F02042F40032C3F8F020D3F8F030D9
:1006280003F400330393039BD3E700BF00040040A7
:1006380000400140004401400044025800B589B020
:100648000023039304930593069307930368294AA9
:10065800934208D0284A93421CD0284A934231D06A
:1006680009B05DF804FB264BD3F8E02042F0020203
:10067800C3F8E020D3F8E03003F002030093009BB6
:100688003023039302230493079303A91D4801F021
:10069800A9FCE5E71A4BD3F8E02042F01002C3F8B2
:1006A800E020D3F8E03003F010030193019B2023EE
:1006B8000393022304930423079303A9124801F028
:1006C80091FCCDE70E4BD3F8E02042F02002C3F8AE
:1006D800E020D3F8E03003F020030293029B40238C
:1006E8000393022304930123079303A9074801F006
:1006F80079FCB5E700040040004001400044014097
:10070800004402580004025800100258001402580D
:1007180000B58FB000230A930B930C930D930793A6
:100728000893099300930193029303930493059309
:1007380006932748274A02604FF6FF1242608360FB
:1007480040F2E732C2600361836100F0E1FB60BB05
:100758004FF480530A930AA91D4800F0CDFC38BB1A
:100768001B4800F005FC30BB00230793099307A939
:10077800174800F021FE08BB3023009340F2E7330E
:1007880001930022029204926946114800F06AFC23
:10079800B8B9042269460E4800F064FCA0B90C48B8
:1007A800FFF74CFF0FB05DF804FBFFF754FECFE7EF
:1007B800FFF751FED4E7FFF74EFED5E7FFF74BFEF4
:1007C800DAE7FFF748FEE4E7FFF745FEE7E700BF93
:1007D800C40000200004004010B59AB0002416940C
:1007E8001794189419941394149415940C940D94C4
:1007F8000E940F941094119412942C22214601A85F
:10080800FFF7AEFD2F48304B03604FF6FF134360F0
:10081800846040F2E733C36004614461846100F09E
:1008280077FB00283BD14FF48053169316A925482F
:1008380000F062FC002835D1224800F099FB00281E
:1008480033D100231393159313A91E4800F0B4FD68
:1008580000282DD130230C9340F2E7330D9300226A
:100868000E920F921092119212920CA9154800F054
:10087800F9FB00BB002301930293039304930593B0
:100888004FF40052069207930B9301A90D4800F00C
:10089800E3FD98B90B48FFF7D1FE1AB010BDFFF77A
:1008A800DAFDC0E7FFF7D7FDC6E7FFF7D4FDC8E7D5
:1008B800FFF7D1FDCEE7FFF7CEFDDBE7FFF7CBFD76
:1008C800E8E700BF2C0000200040014010B592B0BE
:1008D80000240B940C940D940E940F94109411947E
:1008E8002C2221466846FFF73BFD2248224B036035
:1008F8004FF6FF134360846040F2E733C36004613E
:100908004461846100F004FB40BB1A4800F030FBEE
:1009180038BB30230B9340F2E7330C9300220D923F
:100928000E920F92109211920BA9124800F09AFBA6
:10093800D0B90023009301930293039304934FF4D7
:100948000052059206930A9369460A4800F084FD0E
:1009580068B90848FFF772FE12B010BDFFF77BFDBB
:10096800D3E7FFF778FDD4E7FFF775FDE1E7FFF779
:1009780072FDEEE77800002000440140FEE7FEE744
:10098800FEE7FEE7FEE770477047704708B501F0DD
:10099800B9FC08BD82B0074BD3F8F42042F002023C
:1009A800C3F8F420D3F8F43003F002030193019B59
:1009B80002B07047004402580649CB6823F4E0634C
:1009C8001B041B0C000200F4E0600343024A1A43B4
:1009D800CA60704700ED00E00000FA0500B5174B4B
:1009E800DB68C3F30223C3F1070CBCF1040F28BF73
:1009F8004FF0040C03F1040EBEF1060F14D9033BAB
:100A08004FF0FF3E0EFA0CFC21EA0C0199400EFA59
:100A180003F322EA03031943002807DB0901C9B2DB
:100A2800074B19545DF804FB0023E9E700F00F00B9
:100A38000901C9B2034B1954F4E700BF00ED00E007
:100A480000E400E014ED00E00138B0F1807F0BD243
:100A58004FF0E0235861054AF02182F82310002066
:100A6800986107221A6170470120704700ED00E085
:100A7800BFF35F8F044B5A6A22F480325A62002215
:100A8800C3F89420704700BF00ED00E040F001007B
:100A9800054BC3F894005A6A42F480325A62BFF395
:100AA8004F8FBFF36F8F704700ED00E04278164B11
:100AB800C3F898200378FBB14368134AC2F89C3006
:100AC800017BC37A1B0643EA0173817A43EAC14377
:100AD800417B43EA8143817B43EA4143C17B43EA4B
:100AE8000143417A43EA0123017A43EA4103017849
:100AF8000B43C2F8A0307047034B0022C3F89C2078
:100B0800C3F8A020704700BF00ED00E0F0B4036A0E
:100B180023F001030362036A466884691F4A22407E
:100B28000D68154323F002038C6823431C4A1D4CAF
:100B3800A04218BF90420CBF012200220CD004F53D
:100B48008044A04214BF00240124174FB84203D0A8
:100B580014B9164CA04205D123F00803CC682343EE
:100B680023F004035AB9124A904214BF002201220A
:100B78000D4CA04203D012B90C4A904207D126F47A
:100B8800407C4A6942EA0C0C8E6946EA0C064660CB
:100B980085614A6842630362F0BC70478CFFFEFFC0
:100BA80000000140000401400040014000480140AD
:100BB8000044014070B4036A23F480730362036A3B
:100BC8004568C4691A4A22400E68164323F4007324
:100BD8008A6843EA0223174A174CA04218BF90427A
:100BE8000CBF0122002206D123F40063CC6843EA3B
:100BF800042323F480635AB9104A904214BF002298
:100C080001220F4CA04203D012B90E4A904207D1DC
:100C180025F4405C4A694CEA021C8D694CEA0515CA
:100C28004560C6614A68C263036270BC704700BF12
:100C38008CFFFEFF00000140000401400044014019
:100C4800004001400048014070B4036A23F4805317
:100C58000362036A4468C569144A2A400D6842EA77
:100C6800052223F400538D6843EA0533104E114DD5
:100C7800A84218BFB0420DD005F58045A84214BF60
:100C88000025012506F58046B04203D015B90A4D66
:100C9800A84204D124F480444D6944EA8514446090
:100CA800C2614A680264036270BC7047FF8CFFFE31
:100CB80000000140000401400048014070B4036A8C
:100CC80023F480330362036A4268456D144C2C4058
:100CD8000D682C4323F400338D6843EA0543114E15
:100CE800114DA84218BFB0420DD005F58045A84265
:100CF80014BF0025012506F58046B04203D015B97A
:100D08000A4DA84204D122F480324D6942EA0522F4
:100D1800426044654A688265036270BC704700BFE0
:100D28008FFFFEFF00000140000401400048014021
:100D380070B4036A23F480130362036A4468456D40
:100D4800144A2A400D6842EA052223F400138D68EC
:100D580043EA0553104E114DA84218BFB0420DD0BA
:100D680005F58045A84214BF0025012506F58046F3
:100D7800B04203D015B90A4DA84204D124F4802406
:100D88004D6944EA8524446042654A68C265036245
:100D980070BC7047FF8FFFFE000001400004014057
:100DA8000048014010B4036A046A24F00104046294
:100DB800846924F0F00C4CEA021223F00A030B4376
:100DC800826103625DF8044B704710B4046A24F032
:100DD800100404628469036A24F4704C4CEA0232F9
:100DE80023F0A00343EA0113826103625DF8044B18
:100DF800704700008268034B13400B4343F007031E
:100E0800836070478FFFCFFF7047000030B50368DD
:100E1800394A904214BF4FF0000E4FF0010EB0F166
:100E2800804F14BF72464EF00102AAB9334CA0425B
:100E380014BF00240124324DA8420DD064B904F136
:100E4800804404F58234A04214BF0024012405F52F
:100E58000065A84200D01CB123F070034C682343FE
:100E680012BB264A904214BF00220122244CA04201
:100E78001AD0CAB902F1804202F58232904214BFF8
:100E88000022012204F50064A0420DD062B91D4A77
:100E9800904214BF0022012204F59A34A04203D0E4
:100EA80012B9194A904204D123F4407CCB6843EA32
:100EB8000C0323F080034A69134303608A68C26203
:100EC8000A688262114A904214BF73464EF00103C9
:100ED80063B90C4B984214BF0023012302F57052EA
:100EE800904203D013B9084B984201D10B690363B0
:100EF8000123436130BD00BF0000014000080040ED
:100F08000004004000440140004801400004014042
:100F180060B310B5044690F83D3013B3022384F84B
:100F28003D30214651F8040BFFF770FF012384F888
:100F3800483084F83E3084F83F3084F8403084F8F4
:100F4800413084F8423084F8433084F8443084F8DF
:100F5800453084F8463084F8473084F83D30002026
:100F680010BD80F83C30FFF729FBD7E70120704718
:100F780060B310B5044690F83D3013B3022384F8EB
:100F88003D30214651F8040BFFF740FF012384F858
:100F9800483084F83E3084F83F3084F8403084F894
:100FA800413084F8423084F8433084F8443084F87F
:100FB800453084F8463084F8473084F83D300020C6
:100FC80010BD80F83C30FFF71FFFD7E701207047BE
:100FD80070B4036A23F010030362036A45688469E6
:100FE8001A4A22400E6842EA062623F020038A683D
:100FF80043EA0213164A174CA04218BF90420CBF8E
:101008000122002206D123F08003CC6843EA0413AE
:1010180023F040035AB9104A904214BF002201221B
:101028000E4CA04203D012B90D4A904207D125F4C4
:10103800406C4A694CEA820C8D694CEA850545602A
:1010480086614A688263036270BC7047FF8CFFFE4A
:1010580000000140000401400044014000400140FC
:101068000048014090F83C30012B36D010B50446BA
:10107800012380F83C30142A2AD8DFE802F00B2933
:10108800292910292929152929291A2929291F290E
:10109800292924000068FFF739FD002019E00068BD
:1010A800FFF796FF002014E00068FFF783FD00209B
:1010B8000FE00068FFF7C8FD00200AE00068FFF7AE
:1010C800FDFD002005E00068FFF732FE002000E08B
:1010D8000120002384F83C3010BD0220704710B472
:1010E800846824F47F4C42EA03220A4342EA0C0251
:1010F80082605DF8044B704790F83C30012B00F09B
:101108008F8010B50446012380F83C30022380F814
:101118003D3002689068434B034093600B68702B26
:1011280055D031D8502B6CD00CD9602B2AD1CA6835
:1011380049682068FFF749FE60212068FFF75AFEDA
:10114800002035E0402B0AD1CA6849682068FFF7BB
:1011580029FE40212068FFF74DFE002028E05BD8DB
:10116800202B07D003D9302B04D0012020E00BB16D
:10117800102B05D119462068FFF73CFE002017E028
:10118800012015E0012013E0B3F5005F2CD00BD946
:10119800254A9342EED012D9244A9342EAD010321B
:1011A8009342E7D0012003E0B3F5805F36D10020F9
:1011B800012384F83D30002384F83C3010BDB3F59A
:1011C800801FD7D0B3F1101FD4D00120F0E7CB682F
:1011D8004A6889682068FFF782FF2268936843F0AD
:1011E800770393600020E3E7CB684A688968206842
:1011F800FFF775FF2268936843F4804393600020EB
:10120800D6E7CA6849682068FFF7CCFD50212068F6
:10121800FFF7F0FD0020CBE70120C9E70120C7E771
:10122800022070478800CEFF200010003000100018
:1012380001F01F01012303FA01FC036A23EA0C03EE
:101248000362036A02FA01F10B430362704700006C
:1012580010B50446084600294ED194F83E30DBB25A
:10126800013B18BF0123002B40F09B8000286ED162
:10127800022384F83E30012201462068FFF7D8FF98
:1012880023684A494A4A934218BF8B420BD002F559
:101298007052934207D002F58062934203D002F560
:1012A8008062934203D15A6C42F400425A64236824
:1012B8003E4AB3F1804F18BF934264D0A2F57C42F6
:1012C800934260D002F5806293425CD002F580625E
:1012D800934258D002F57842934254D0A2F56C421A
:1012E800934250D002F5943293424CD01A6842F09F
:1012F80001021A60002055E004290CD0082911D0F9
:101308000C2916D010291BD094F84330DBB2013BCE
:1013180018BF0123A7E794F83F30DBB2013B18BFA1
:101328000123A0E794F84030DBB2013B18BF01234A
:1013380099E794F84130DBB2013B18BF012392E7EB
:1013480094F84230DBB2013B18BF01238BE7042835
:1013580009D008280BD00C280DD010280FD0022354
:1013680084F8433087E7022384F83F3083E7022379
:1013780084F840307FE7022384F841307BE702237A
:1013880084F8423077E799680A4A0A40062A18BF63
:10139800B2F5803F07D01A6842F001021A600020B7
:1013A80000E0012010BD0020FCE700BF0000014064
:1013B800000401400700010090F83C30012B45D0A3
:1013C80070B4012380F83C30022380F83D30036874
:1013D8005A689C681E4E1F4DAB4218BFB34203D1DA
:1013E80022F470024D682A4322F070020D682A43E5
:1013F8005A600368164AB3F1804F18BF934217D05A
:10140800A2F57C42934213D002F5806293420FD03A
:1014180002F5806293420BD002F57842934207D0DE
:10142800A2F56C42934203D002F59432934204D160
:1014380024F080048A6814439C60012380F83D30BE
:10144800002380F83C30184670BC70470220704773
:10145800000001400004014090F83C30012B3CD0D2
:1014680030B4012380F83C30CB6823F440738A6899
:10147800134323F480634A68134323F400630A6820
:10148800134323F480530A69134323F400534A692E
:10149800134323F480438A6A134323F470238A692D
:1014A80043EA024302680E4D0E4CA24218BFAA42FC
:1014B8000CD123F470034C6A43EA045323F080737D
:1014C800CC69234323F00073096A0B435364002358
:1014D80080F83C30184630BC70470220704700BF87
:1014E8000000014000040140002800F0188338B5CE
:1014F8000446036813F0010F25D0944A136903F0DA
:101508003803926A102B15D0182B0FD06368B3F5E7
:10151800803F3FD0002B53D18C4B1A6822F4803285
:101528001A601A6822F480221A6038E002F0030276
:10153800022AEBD1854B1B6813F4003F03D0636884
:10154800002B00F0EE82236813F0020F00F0A18058
:101558007E4A1369926A13F038035AD0182B55D073
:10156800E368002B00F0DE8078490A6822F019024F
:1015780013430B6000F0D2FE0546744B1B6813F052
:10158800040F40F0AD8000F0C9FE401B0228F4D9DA
:101598000320CDE26D4A136843F480331360636817
:1015A8002BB300F0BBFE0546684B1B6813F4003FE5
:1015B800C9D100F0B3FE401B6428F5D90320B7E277
:1015C800B3F5A02F09D0614B1A6822F480321A6053
:1015D8001A6822F480221A60E1E75C4B1A6842F428
:1015E80080221A601A6842F480321A60D7E700F045
:1015F80095FE0546554B1B6813F4003FA3D000F039
:101608008DFE401B6428F5D9032091E212F0030FE8
:10161800A6D14E4B1B6813F0040F03D0E368002BD0
:1016280000F08182494A136823F01903E1680B43EB
:10163800136000F073FE0546444B1B6813F0040F5B
:1016480006D100F06BFE401B0228F5D903206FE29B
:1016580000F06AFE41F20303984212D82269402A38
:1016680007D03A494B6823F47C3343EA02334B6092
:101678000FE0364A536823F47C3343F40033536055
:1016880007E0324A536823F0FE43216943EA0163C5
:101698005360236813F0100F00F088802B4A1369F9
:1016A80003F03803926A082B56D0182B50D0E36900
:1016B800002B00F0B880254A136843F080031360BC
:1016C80000F02CFE0546214B1B6813F4807F40F088
:1016D800888000F023FE401B0228F4D9032027E26B
:1016E80000F022FE41F20303984212D82269402AF0
:1016F80007D016494B6823F47C3343EA02334B6026
:10170800C7E7124A536823F47C3343F40033536029
:10171800BFE70E4A536823F0FE43216943EA016399
:101728005360B6E7094A136823F00103136000F019
:10173800F5FD0546054B1B6813F0040FA9D000F012
:10174800EDFD401B0228F5D90320F1E100440258C1
:1017580002F00302012AAAD1A14B1B6813F4807F6F
:1017680003D0E369802B40F0E08100F0DDFD41F219
:101778000303984212D8226A202A07D098494B6856
:1017880023F0F84343EA82634B600FE0944A5368BE
:1017980023F0F84343F08043536007E0904AD3684E
:1017A80023F07C53216A43EA0163D360236813F072
:1017B800080F60D06369002B49D0894A536F43F002
:1017C8000103536700F0AAFD0546854B5B6F13F0D4
:1017D800020F50D100F0A2FD401B0228F5D90320CA
:1017E800A6E100F0A1FD41F20303984212D8226A53
:1017F800202A07D07A494B6823F0F84343EA8263EA
:101808004B60D3E7764A536823F0F84343F08043AC
:101818005360CBE7724AD36823F07C53216A43EACA
:101828000163D360C2E76E4A136823F08003136034
:1018380000F074FD05466A4B1B6813F4807FB5D031
:1018480000F06CFD401B0228F5D9032070E1644AC2
:10185800536F23F00103536700F060FD0546604BAA
:101868005B6F13F0020F06D000F058FD401B0228F2
:10187800F5D903205CE1236813F0200F29D0A36970
:101888009BB1574A136843F48053136000F046FD38
:101898000546534B1B6813F4005F1AD100F03EFD58
:1018A800401B0228F5D9032042E14D4A136823F46E
:1018B8008053136000F032FD0546494B1B6813F452
:1018C800005F06D000F02AFD401B0228F5D903204E
:1018D8002EE1236813F0040F21D1636A002B00F076
:1018E80026813F4A126902F03802182A00F0EE8079
:1018F800022B79D03A4A136823F08073136000F002
:101908000DFD0446364B1B6813F0007F00F0DC80A9
:1019180000F004FD001B0228F4D9032008E1314A35
:10192800136843F48073136000F0F8FC05462D4BF0
:101938001B6813F4807F06D100F0F0FC401B64287C
:10194800F5D90320F4E0A368012B0AD00BBB244B84
:101958001A6F22F001021A671A6F22F004021A673E
:1019680004E01F4A136F43F001031367A36833B3FE
:1019780000F0D4FC05461A4B1B6F13F0020FACD1D4
:1019880000F0CCFC401B41F288339842F3D9032085
:10199800CEE0052B09D0124B1A6F22F001021A670C
:1019A8001A6F22F004021A67E0E70D4B1A6F42F033
:1019B80004021A671A6F42F001021A67D6E700F0AC
:1019C800ADFC0546064B1B6F13F0020F85D000F0E7
:1019D800A5FC401B41F288339842F3D90320A7E0C5
:1019E8000044025800480258594A136823F080738B
:1019F800136000F093FC0546554B1B6813F0007FFD
:101A080006D000F08BFC401B0228F5D903208FE09C
:101A18004F4B996A4F4A0A40A16AE06A41EA0011AD
:101A28000A439A62226B013AC2F30802616B0139D8
:101A3800490289B20A43A16B0139090401F4FE0184
:101A48000A43E16B0139090601F0FE410A431A63B2
:101A5800DA6A22F00102DA62596B3F4A0A40A16C45
:101A680042EAC1025A63DA6A22F00C02216C0A4384
:101A7800DA62DA6A22F00202616C0A43DA62DA6A2E
:101A880042F48032DA62DA6A42F40032DA62DA6AFE
:101A980042F48022DA62DA6A42F00102DA621A68F3
:101AA80042F080721A6000F039FC0446284B1B682B
:101AB80013F0007F06D100F031FC001B0228F5D995
:101AC800032035E0002033E0002031E0204A916A0D
:101AD800106B012B2DD001F00303A26A93422AD187
:101AE800C1F30511E36A994227D1C0F30802236BB9
:101AF800013B9A4223D1C0F34622636B013B9A42D1
:101B08001FD1C0F30642A36B013B9A421BD1C0F31D
:101B18000660E36B013B984217D1002008E00120E2
:101B28007047012004E0012002E0012000E00020CD
:101B380038BD0120FCE70120FAE70120F8E7012081
:101B4800F6E70120F4E70120F2E70120F0E700BF03
:101B5800004402580CFCFFFF0700FFFF744B1B6991
:101B680003F03803102B00F0DE80182B10D00BB1D7
:101B7800704870476E4B1B6813F0200F00F0D5803B
:101B88006B4B1868C0F3C1006B4B23FA00F0704729
:101B980010B4674A916A01F00301946AC4F305100E
:101BA800D36A03F0010C536BC3F3CC030CFB03F3B0
:101BB80007EE903AF8EE677A14F47C7F00F0938091
:101BC800012965D0022900F09180E1B107EE100AE1
:101BD800F8EE476A9FED596A86EE267A544B1B6BDE
:101BE800C3F3080306EE903AF8EE666A9FED546A6E
:101BF80067EE867A76EEA77AF7EE006A77EEA67A2F
:101C080027EE277A60E0136813F0200F23D01146DF
:101C18001268C2F3C102484BD34007EE103AF8EEFF
:101C2800476A07EE100AB8EE476A86EE867A0B6BAB
:101C3800C3F3080306EE903AF8EE666A9FED406A31
:101C480067EE867A76EEA77AF7EE006A77EEA67ADE
:101C580027EE277A38E007EE100AF8EE476A9FED7C
:101C6800396A86EE267A324B1B6BC3F3080306EEFD
:101C7800903AF8EE666A9FED326A67EE867A76EEFB
:101C8800A77AF7EE006A77EEA67A27EE277A1BE0A6
:101C980007EE100AF8EE476A9FED286A86EE267A64
:101CA800234B1B6BC3F3080306EE903AF8EE666A03
:101CB8009FED236A67EE867A76EEA77AF7EE006ADA
:101CC80077EEA67A27EE277A194B1B6BC3F34623C8
:101CD800013307EE903AF8EE677AC7EE276AFCEE12
:101CE800E67A17EE900A5DF8044B704707EE100A83
:101CF800F8EE476A9FED146A86EE267A0C4B1B6B4A
:101D0800C3F3080306EE903AF8EE666A9FED0C6A94
:101D180067EE867A76EEA77AF7EE006A77EEA67A0D
:101D280027EE277AD0E7094870470348704700BF75
:101D38000044025800093D000090D0030024744A72
:101D4800000000390024744C20BCBE4B40787D0153
:101D5800002800F0328170B50D4604469B4B1B6885
:101D680003F00F038B420BD2984A136823F00F033A
:101D78000B431360136803F00F038B4240F01F817D
:101D8800236813F0040F0CD02269914B9B6903F070
:101D980070039A4205D98E498B6923F070031A4360
:101DA8008A61236813F0080F0CD06269884BDB69DD
:101DB80003F070039A4205D98549CB6923F0700373
:101DC8001A43CA61236813F0100F0CD0A269804B24
:101DD800DB6903F4E0639A4205D97D49CB6923F4B2
:101DE800E0631A43CA61236813F0200F0CD0E2693C
:101DF800774B1B6A03F070039A4205D974490B6A42
:101E080023F070031A430A62236813F0020F0CD000
:101E1800E2686F4B9B6903F00F039A4205D96C493E
:101E28008B6923F00F031A438A61236813F0010FAB
:101E380041D0674A936923F47063A1680B439361A7
:101E48006368022B0AD0032B27D0012B2CD0604AC1
:101E5800126812F0040F06D10120ADE0126812F4E6
:101E6800003F00F0AE805A490A6922F00702134386
:101E78000B6100F053FA0646554B1B6903F0380313
:101E88006268B3EBC20F16D000F048FA801B41F22B
:101E980088339842F0D903208EE04D4A126812F038
:101EA800007FE0D1012087E0494A126812F4807F60
:101EB800D9D1012080E0236813F0020F0CD0E2682A
:101EC800434B9B6903F00F039A4205D240498B6943
:101ED80023F00F031A438A613C4B1B6803F00F037E
:101EE800AB420AD9394A136823F00F032B43136016
:101EF800136803F00F03AB4265D1236813F0040F96
:101F08000CD02269324B9B6903F070039A4205D2C8
:101F18002F498B6923F070031A438A61236813F0F1
:101F2800080F0CD062692A4BDB6903F070039A42F0
:101F380005D22749CB6923F070031A43CA61236885
:101F480013F0100F0CD0A269214BDB6903F4E06396
:101F58009A4205D21E49CB6923F4E0631A43CA6149
:101F6800236813F0200F0CD0E269194B1B6A03F0A9
:101F780070039A4205D216490B6A23F070031A437C
:101F88000A62FFF7EBFD12498B69C3F30323114A79
:101F9800D35C03F01F03D8408B6903F00F03D35CB5
:101FA80003F01F0320FA03F30B4A13600B4B18606E
:101FB8000B4B186800F050F970BD012070470120E4
:101FC800FAE70120F8E70120F6E700BF00200052F9
:101FD80000440258802402080C0000200800002059
:101FE80004000020F0B583B000236BE085685E0034
:101FF8000324B44025EA0405CC68B4402C4384602B
:10200800446824EA0C0C4C68C4F300149C4044EA6D
:102018000C04446068E0DD08083550F8256003F0DA
:1020280007044FEA840C0F2404FA0CF426EA040E81
:102038000C6904FA0CF444EA0E0440F825406BE0FD
:10204800092400E0002404FA0EF42C430CF1020CDD
:10205800694D45F82C404FF0B0442568D44325EA33
:1020680002064F6817F4801F01D042EA05064FF0B8
:10207800B0452E606D6804EA05064F6817F4001F26
:1020880001D042EA05064FF0B0456E60D5F884509D
:1020980004EA05064F6817F4003F01D042EA050636
:1020A8004FF0B045C5F88460D5F880502C404E6894
:1020B80016F4803F01D042EA05044FF0B042C2F85E
:1020C800804001330A6832FA03F400F092804FF03E
:1020D800010C0CFA03FC1CEA0202F2D04C6804F072
:1020E8000304013C012C81D94C6804F00304032C3F
:1020F8000CD0C4685D004FF0030C0CFA05FC24EA10
:102108000C0C8C68AC4044EA0C04C4604C6804F0C5
:102118000304022C3FF47FAF04684FEA430E4FF0EC
:10212800030C0CFA0EFC24EA0C0C4C6804F00304B3
:1021380004FA0EF444EA0C0404604C6814F4403FBA
:10214800BFD02E4CD4F8F45045F00205C4F8F45032
:10215800D4F8F44004F002040194019C4FEA930C73
:102168000CF10205244C54F8255003F003044FEAFF
:10217800840E0F2404FA0EF425EA0405204CA0422C
:102188003FF460AF04F58064A04222D004F5806477
:10219800A04220D004F58064A0421ED004F58064DB
:1021A800A0421CD004F58064A0421AD004F58064D3
:1021B800A04218D004F58064A04216D004F58064CB
:1021C800A04214D004F58064A0423FF439AF0A2439
:1021D80039E7012437E7022435E7032433E70424E9
:1021E80031E705242FE706242DE707242BE70824E9
:1021F80029E703B0F0BD00BF0004005800440258AE
:1022080000000258134BDB6813F0040F07D1114B81
:10221800DB6803F0070383421AD00120704710B52A
:102228000C4AD36823F007031843D06000F076F80F
:102238000446084B5B6813F4005F07D100F06EF8A2
:10224800001BB0F57A7FF4D9012000E0002010BD12
:102258000020704700480258104B1B780BB901202A
:10226800704710B504464FF47A70B0FBF3F30C4A8C
:102278001068B0FBF3F0FEF7E7FB68B90F2C01D943
:1022880001200AE0002221464FF0FF30FEF7A6FBAE
:10229800044B1C60002000E0012010BD000000205D
:1022A800080000200400002010B50320FEF784FB7E
:1022B800FFF754FC0F498B69C3F303230E4AD35C21
:1022C80003F01F03D8408B6903F00F03D35C03F0BE
:1022D8001F0320FA03F3094A1360094B18600F2003
:1022E800FFF7BAFF10B10124204610BD0446FEF7DF
:1022F80051FBF9E700440258802402080C00002032
:1023080008000020034B1B78034A11680B44136034
:10231800704700BF0000002010010020014B186822
:10232800704700BF10010020014B1868000C70476F
:102338000010005C294AD2F8883043F47003C2F8D0
:102348008830274B1B6803F00F03062B06D8244A56
:10235800136823F00F0343F007031360214B1A6837
:1023680042F001021A6000221A6119681E4A0A40E6
:102378001A601B4B1B6813F0080F06D0184A136825
:1023880023F00F0343F007031360164B00229A61F2
:10239800DA611A62154999621549D96215491963B2
:1023A8005A639963DA6319645A64196821F48021BD
:1023B80019601A66104B1A68104B1340B3F1005F8E
:1023C80003D20F4B0122C3F808210E4B43F2D2026D
:1023D8001A60024B0C4A9A60704700BF00ED00E09B
:1023E80000200052004402587FEDF6EA0002020283
:1023F8000000FF01800201010010005C0000FFFFE7
:10240800008000510040005200000208DFF834D07C
:10241800FFF790FF0C480D490D4A002302E0D458FD
:10242800C4500433C4188C42F9D30A4A0A4C002316
:1024380001E013600432A242FBD3FDF76DFFFEF703
:102448005FF8704700000220000000201000002004
:10245800982402081000002014010020FEE7000064
:10246800F8B500BFF8BC08BC9E467047F8B500BF79
:08247800F8BC08BC9E46704749
:10248000000000000102030401020304060708091A
:04249000010302083A
:04249400D90202085F
:1024980001000000100000000090D0030090D0035D
:0400000508022415B4
:00000001FF
